{
  "_format": "hh-sol-artifact-1",
  "contractName": "M0InvoiceHandler",
  "sourceName": "contracts/M0InvoiceHandler.sol",
  "abi": [
    {
      "inputs": [],
      "name": "AccessControlBadConfirmation",
      "type": "error"
    },
    {
      "inputs": [
        {
          "internalType": "address",
          "name": "account",
          "type": "address"
        },
        {
          "internalType": "bytes32",
          "name": "neededRole",
          "type": "bytes32"
        }
      ],
      "name": "AccessControlUnauthorizedAccount",
      "type": "error"
    },
    {
      "inputs": [],
      "name": "AddressZeroNotAllowed",
      "type": "error"
    },
    {
      "inputs": [],
      "name": "InvalidInitialization",
      "type": "error"
    },
    {
      "inputs": [],
      "name": "InvalidPlatformFee",
      "type": "error"
    },
    {
      "inputs": [],
      "name": "NotInitializing",
      "type": "error"
    },
    {
      "anonymous": false,
      "inputs": [
        {
          "indexed": false,
          "internalType": "uint64",
          "name": "version",
          "type": "uint64"
        }
      ],
      "name": "Initialized",
      "type": "event"
    },
    {
      "anonymous": false,
      "inputs": [
        {
          "indexed": false,
          "internalType": "uint256",
          "name": "invoiceId",
          "type": "uint256"
        },
        {
          "indexed": true,
          "internalType": "address",
          "name": "from",
          "type": "address"
        },
        {
          "indexed": true,
          "internalType": "address",
          "name": "to",
          "type": "address"
        },
        {
          "indexed": true,
          "internalType": "address",
          "name": "token",
          "type": "address"
        },
        {
          "indexed": false,
          "internalType": "uint256",
          "name": "amount",
          "type": "uint256"
        }
      ],
      "name": "InvoicePaid",
      "type": "event"
    },
    {
      "anonymous": false,
      "inputs": [
        {
          "indexed": true,
          "internalType": "uint256",
          "name": "oldFee",
          "type": "uint256"
        },
        {
          "indexed": true,
          "internalType": "uint256",
          "name": "newFee",
          "type": "uint256"
        }
      ],
      "name": "PlatformFeeUpdated",
      "type": "event"
    },
    {
      "anonymous": false,
      "inputs": [
        {
          "indexed": true,
          "internalType": "bytes32",
          "name": "role",
          "type": "bytes32"
        },
        {
          "indexed": true,
          "internalType": "bytes32",
          "name": "previousAdminRole",
          "type": "bytes32"
        },
        {
          "indexed": true,
          "internalType": "bytes32",
          "name": "newAdminRole",
          "type": "bytes32"
        }
      ],
      "name": "RoleAdminChanged",
      "type": "event"
    },
    {
      "anonymous": false,
      "inputs": [
        {
          "indexed": true,
          "internalType": "bytes32",
          "name": "role",
          "type": "bytes32"
        },
        {
          "indexed": true,
          "internalType": "address",
          "name": "account",
          "type": "address"
        },
        {
          "indexed": true,
          "internalType": "address",
          "name": "sender",
          "type": "address"
        }
      ],
      "name": "RoleGranted",
      "type": "event"
    },
    {
      "anonymous": false,
      "inputs": [
        {
          "indexed": true,
          "internalType": "bytes32",
          "name": "role",
          "type": "bytes32"
        },
        {
          "indexed": true,
          "internalType": "address",
          "name": "account",
          "type": "address"
        },
        {
          "indexed": true,
          "internalType": "address",
          "name": "sender",
          "type": "address"
        }
      ],
      "name": "RoleRevoked",
      "type": "event"
    },
    {
      "stateMutability": "payable",
      "type": "fallback"
    },
    {
      "inputs": [],
      "name": "DEFAULT_ADMIN_ROLE",
      "outputs": [
        {
          "internalType": "bytes32",
          "name": "",
          "type": "bytes32"
        }
      ],
      "stateMutability": "view",
      "type": "function"
    },
    {
      "inputs": [],
      "name": "INVOICE_HANDLER_ROLE",
      "outputs": [
        {
          "internalType": "bytes32",
          "name": "",
          "type": "bytes32"
        }
      ],
      "stateMutability": "view",
      "type": "function"
    },
    {
      "inputs": [
        {
          "internalType": "address",
          "name": "_newInvoiceHandler",
          "type": "address"
        }
      ],
      "name": "addInvoiceHandler",
      "outputs": [],
      "stateMutability": "nonpayable",
      "type": "function"
    },
    {
      "inputs": [
        {
          "internalType": "address",
          "name": "",
          "type": "address"
        }
      ],
      "name": "feesCollected",
      "outputs": [
        {
          "internalType": "uint256",
          "name": "",
          "type": "uint256"
        }
      ],
      "stateMutability": "view",
      "type": "function"
    },
    {
      "inputs": [
        {
          "internalType": "bytes32",
          "name": "role",
          "type": "bytes32"
        }
      ],
      "name": "getRoleAdmin",
      "outputs": [
        {
          "internalType": "bytes32",
          "name": "",
          "type": "bytes32"
        }
      ],
      "stateMutability": "view",
      "type": "function"
    },
    {
      "inputs": [
        {
          "internalType": "bytes32",
          "name": "role",
          "type": "bytes32"
        },
        {
          "internalType": "address",
          "name": "account",
          "type": "address"
        }
      ],
      "name": "grantRole",
      "outputs": [],
      "stateMutability": "nonpayable",
      "type": "function"
    },
    {
      "inputs": [
        {
          "internalType": "bytes32",
          "name": "role",
          "type": "bytes32"
        },
        {
          "internalType": "address",
          "name": "account",
          "type": "address"
        }
      ],
      "name": "hasRole",
      "outputs": [
        {
          "internalType": "bool",
          "name": "",
          "type": "bool"
        }
      ],
      "stateMutability": "view",
      "type": "function"
    },
    {
      "inputs": [],
      "name": "initialize",
      "outputs": [],
      "stateMutability": "nonpayable",
      "type": "function"
    },
    {
      "inputs": [],
      "name": "platformFee",
      "outputs": [
        {
          "internalType": "uint256",
          "name": "",
          "type": "uint256"
        }
      ],
      "stateMutability": "view",
      "type": "function"
    },
    {
      "inputs": [
        {
          "internalType": "address",
          "name": "_invoiceHandler",
          "type": "address"
        }
      ],
      "name": "removeInvoiceHandler",
      "outputs": [],
      "stateMutability": "nonpayable",
      "type": "function"
    },
    {
      "inputs": [
        {
          "internalType": "bytes32",
          "name": "role",
          "type": "bytes32"
        },
        {
          "internalType": "address",
          "name": "callerConfirmation",
          "type": "address"
        }
      ],
      "name": "renounceRole",
      "outputs": [],
      "stateMutability": "nonpayable",
      "type": "function"
    },
    {
      "inputs": [
        {
          "internalType": "bytes32",
          "name": "role",
          "type": "bytes32"
        },
        {
          "internalType": "address",
          "name": "account",
          "type": "address"
        }
      ],
      "name": "revokeRole",
      "outputs": [],
      "stateMutability": "nonpayable",
      "type": "function"
    },
    {
      "inputs": [
        {
          "internalType": "uint256",
          "name": "invoiceId",
          "type": "uint256"
        },
        {
          "internalType": "address payable",
          "name": "_from",
          "type": "address"
        },
        {
          "internalType": "address payable",
          "name": "_to",
          "type": "address"
        },
        {
          "internalType": "address",
          "name": "token",
          "type": "address"
        },
        {
          "internalType": "uint256",
          "name": "amount",
          "type": "uint256"
        }
      ],
      "name": "sendTokens",
      "outputs": [],
      "stateMutability": "nonpayable",
      "type": "function"
    },
    {
      "inputs": [
        {
          "internalType": "uint256",
          "name": "invoiceId",
          "type": "uint256"
        },
        {
          "internalType": "address payable",
          "name": "_to",
          "type": "address"
        },
        {
          "internalType": "address",
          "name": "wToken",
          "type": "address"
        }
      ],
      "name": "sendTokensEth",
      "outputs": [],
      "stateMutability": "payable",
      "type": "function"
    },
    {
      "inputs": [
        {
          "internalType": "uint256",
          "name": "_platformFee",
          "type": "uint256"
        }
      ],
      "name": "setPlatformFee",
      "outputs": [],
      "stateMutability": "nonpayable",
      "type": "function"
    },
    {
      "inputs": [
        {
          "internalType": "bytes4",
          "name": "interfaceId",
          "type": "bytes4"
        }
      ],
      "name": "supportsInterface",
      "outputs": [
        {
          "internalType": "bool",
          "name": "",
          "type": "bool"
        }
      ],
      "stateMutability": "view",
      "type": "function"
    },
    {
      "inputs": [
        {
          "internalType": "address",
          "name": "token",
          "type": "address"
        }
      ],
      "name": "withdrawFees",
      "outputs": [],
      "stateMutability": "nonpayable",
      "type": "function"
    },
    {
      "stateMutability": "payable",
      "type": "receive"
    }
  ],
  "bytecode": "0x608060405234801561001057600080fd5b506120a8806100206000396000f3fe6080604052600436106101025760003560e01c80635b2478ea11610095578063a217fddf11610064578063a217fddf14610456578063b48e005b14610481578063cb84142d1461049d578063d547741f146104c8578063e4ac37e6146104f157610148565b80635b2478ea1461039c5780637c4de748146103d95780638129fc1c1461040257806391d148541461041957610148565b806326232a2e116100d157806326232a2e146102f65780632f2ff15d1461032157806336568abe1461034a5780634edb29611461037357610148565b806301ffc9a71461022a57806312e8e2c314610267578063164e68de14610290578063248a9ca3146102b957610148565b36610148576101466040518060400160405280600c81526020017f52656365697665643a20257300000000000000000000000000000000000000008152503461051a565b005b600080368080601f016020809104026020016040519081016040528093929190818152602001838380828437600081840152601f19601f8201169050808301925050505050505090506000818060200190518101906101a7919061185b565b90506101b2826105b6565b600073ffffffffffffffffffffffffffffffffffffffff16816060015173ffffffffffffffffffffffffffffffffffffffff16036102065761020181600001518260400151836060015161064f565b610228565b61022781600001518260200151836040015184606001518560800151610822565b5b005b34801561023657600080fd5b50610251600480360381019061024c91906118e0565b610b50565b60405161025e9190611928565b60405180910390f35b34801561027357600080fd5b5061028e60048036038101906102899190611958565b610bca565b005b34801561029c57600080fd5b506102b760048036038101906102b2919061199a565b610c6b565b005b3480156102c557600080fd5b506102e060048036038101906102db91906119fd565b610e29565b6040516102ed9190611a39565b60405180910390f35b34801561030257600080fd5b5061030b610e57565b6040516103189190611a63565b60405180910390f35b34801561032d57600080fd5b5061034860048036038101906103439190611a7e565b610e5d565b005b34801561035657600080fd5b50610371600480360381019061036c9190611a7e565b610e7f565b005b34801561037f57600080fd5b5061039a6004803603810190610395919061199a565b610efa565b005b3480156103a857600080fd5b506103c360048036038101906103be919061199a565b610f53565b6040516103d09190611a63565b60405180910390f35b3480156103e557600080fd5b5061040060048036038101906103fb9190611ad3565b610822565b005b34801561040e57600080fd5b50610417610f6b565b005b34801561042557600080fd5b50610440600480360381019061043b9190611a7e565b611131565b60405161044d9190611928565b60405180910390f35b34801561046257600080fd5b5061046b6111aa565b6040516104789190611a39565b60405180910390f35b61049b60048036038101906104969190611b4e565b61064f565b005b3480156104a957600080fd5b506104b26111b1565b6040516104bf9190611a39565b60405180910390f35b3480156104d457600080fd5b506104ef60048036038101906104ea9190611a7e565b6111d5565b005b3480156104fd57600080fd5b506105186004803603810190610513919061199a565b6111f7565b005b6105b28282604051602401610530929190611c20565b6040516020818303038152906040527fb60e72cc000000000000000000000000000000000000000000000000000000007bffffffffffffffffffffffffffffffffffffffffffffffffffffffff19166020820180517bffffffffffffffffffffffffffffffffffffffffffffffffffffffff8381831617835250505050611250565b5050565b61064c816040516024016105ca9190611ca5565b6040516020818303038152906040527f0be77f56000000000000000000000000000000000000000000000000000000007bffffffffffffffffffffffffffffffffffffffffffffffffffffffff19166020820180517bffffffffffffffffffffffffffffffffffffffffffffffffffffffff8381831617835250505050611250565b50565b600061065a3461126a565b905080600160008073ffffffffffffffffffffffffffffffffffffffff1673ffffffffffffffffffffffffffffffffffffffff16815260200190815260200160002060008282546106ab9190611cf6565b925050819055508173ffffffffffffffffffffffffffffffffffffffff1663d0e30db0346040518263ffffffff1660e01b81526004016000604051808303818588803b1580156106fa57600080fd5b505af115801561070e573d6000803e3d6000fd5b50505050508173ffffffffffffffffffffffffffffffffffffffff1663a9059cbb84833461073c9190611d2a565b6040518363ffffffff1660e01b8152600401610759929190611dbd565b6020604051808303816000875af1158015610778573d6000803e3d6000fd5b505050506040513d601f19601f8201168201806040525081019061079c9190611e12565b50600073ffffffffffffffffffffffffffffffffffffffff168373ffffffffffffffffffffffffffffffffffffffff163373ffffffffffffffffffffffffffffffffffffffff167f1ef1f3f0f7bc840f97a0ba8905edce7eb74af7276afafcb8a56dae91695fec6d8734604051610814929190611e3f565b60405180910390a450505050565b600073ffffffffffffffffffffffffffffffffffffffff168473ffffffffffffffffffffffffffffffffffffffff1603610888576040517f0855380c00000000000000000000000000000000000000000000000000000000815260040160405180910390fd5b600073ffffffffffffffffffffffffffffffffffffffff168373ffffffffffffffffffffffffffffffffffffffff16036108ee576040517f0855380c00000000000000000000000000000000000000000000000000000000815260040160405180910390fd5b600073ffffffffffffffffffffffffffffffffffffffff168273ffffffffffffffffffffffffffffffffffffffff1603610954576040517f0855380c00000000000000000000000000000000000000000000000000000000815260040160405180910390fd5b600082905060006109648361126a565b905080600160008673ffffffffffffffffffffffffffffffffffffffff1673ffffffffffffffffffffffffffffffffffffffff16815260200190815260200160002060008282546109b59190611cf6565b925050819055508173ffffffffffffffffffffffffffffffffffffffff166323b872dd8730846040518463ffffffff1660e01b81526004016109f993929190611e77565b6020604051808303816000875af1158015610a18573d6000803e3d6000fd5b505050506040513d601f19601f82011682018060405250810190610a3c9190611e12565b508173ffffffffffffffffffffffffffffffffffffffff166323b872dd87878487610a679190611d2a565b6040518463ffffffff1660e01b8152600401610a8593929190611eae565b6020604051808303816000875af1158015610aa4573d6000803e3d6000fd5b505050506040513d601f19601f82011682018060405250810190610ac89190611e12565b508373ffffffffffffffffffffffffffffffffffffffff168573ffffffffffffffffffffffffffffffffffffffff168773ffffffffffffffffffffffffffffffffffffffff167f1ef1f3f0f7bc840f97a0ba8905edce7eb74af7276afafcb8a56dae91695fec6d8a87604051610b3f929190611e3f565b60405180910390a450505050505050565b60007f7965db0b000000000000000000000000000000000000000000000000000000007bffffffffffffffffffffffffffffffffffffffffffffffffffffffff1916827bffffffffffffffffffffffffffffffffffffffffffffffffffffffff19161480610bc35750610bc282611293565b5b9050919050565b7fac687a127c595e5898a7a7aac0dba4a70ec191621f32e742e17fa273c5887837610bf4816112fd565b612710821115610c30576040517fc1a205b800000000000000000000000000000000000000000000000000000000815260040160405180910390fd5b816000547fd347e206f25a89b917fc9482f1a2d294d749baa4dc9bde7fb495ee11fe49164360405160405180910390a3816000819055505050565b7fac687a127c595e5898a7a7aac0dba4a70ec191621f32e742e17fa273c5887837610c95816112fd565b600073ffffffffffffffffffffffffffffffffffffffff168273ffffffffffffffffffffffffffffffffffffffff1603610d15573373ffffffffffffffffffffffffffffffffffffffff166108fc479081150290604051600060405180830381858888f19350505050158015610d0f573d6000803e3d6000fd5b50610e25565b60008290506000600160008573ffffffffffffffffffffffffffffffffffffffff1673ffffffffffffffffffffffffffffffffffffffff1681526020019081526020016000205490506000600160008673ffffffffffffffffffffffffffffffffffffffff1673ffffffffffffffffffffffffffffffffffffffff168152602001908152602001600020819055508173ffffffffffffffffffffffffffffffffffffffff1663a9059cbb33836040518363ffffffff1660e01b8152600401610dde929190611ee5565b6020604051808303816000875af1158015610dfd573d6000803e3d6000fd5b505050506040513d601f19601f82011682018060405250810190610e219190611e12565b5050505b5050565b600080610e34611311565b905080600001600084815260200190815260200160002060010154915050919050565b60005481565b610e6682610e29565b610e6f816112fd565b610e798383611339565b50505050565b610e8761143a565b73ffffffffffffffffffffffffffffffffffffffff168173ffffffffffffffffffffffffffffffffffffffff1614610eeb576040517f6697b23200000000000000000000000000000000000000000000000000000000815260040160405180910390fd5b610ef58282611442565b505050565b7fac687a127c595e5898a7a7aac0dba4a70ec191621f32e742e17fa273c5887837610f24816112fd565b610f4e7fac687a127c595e5898a7a7aac0dba4a70ec191621f32e742e17fa273c588783783611442565b505050565b60016020528060005260406000206000915090505481565b6000610f75611544565b905060008160000160089054906101000a900460ff1615905060008260000160009054906101000a900467ffffffffffffffff1690506000808267ffffffffffffffff16148015610fc35750825b9050600060018367ffffffffffffffff16148015610ff8575060003073ffffffffffffffffffffffffffffffffffffffff163b145b905081158015611006575080155b1561103d576040517ff92ee8a900000000000000000000000000000000000000000000000000000000815260040160405180910390fd5b60018560000160006101000a81548167ffffffffffffffff021916908367ffffffffffffffff160217905550831561108d5760018560000160086101000a81548160ff0219169083151502179055505b61109561156c565b6110a26000801b33611339565b506110cd7fac687a127c595e5898a7a7aac0dba4a70ec191621f32e742e17fa273c588783733611339565b50831561112a5760008560000160086101000a81548160ff0219169083151502179055507fc7f505b2f371ae2175ee4913f4499e1f2633a7b5936321eed1cdaeb6115181d260016040516111219190611f5d565b60405180910390a15b5050505050565b60008061113c611311565b905080600001600085815260200190815260200160002060000160008473ffffffffffffffffffffffffffffffffffffffff1673ffffffffffffffffffffffffffffffffffffffff16815260200190815260200160002060009054906101000a900460ff1691505092915050565b6000801b81565b7fac687a127c595e5898a7a7aac0dba4a70ec191621f32e742e17fa273c588783781565b6111de82610e29565b6111e7816112fd565b6111f18383611442565b50505050565b7fac687a127c595e5898a7a7aac0dba4a70ec191621f32e742e17fa273c5887837611221816112fd565b61124b7fac687a127c595e5898a7a7aac0dba4a70ec191621f32e742e17fa273c588783783611339565b505050565b6112678161125f611576611597565b63ffffffff16565b50565b6000806127106000548461127e9190611f78565b6112889190611fe9565b905080915050919050565b60007f01ffc9a7000000000000000000000000000000000000000000000000000000007bffffffffffffffffffffffffffffffffffffffffffffffffffffffff1916827bffffffffffffffffffffffffffffffffffffffffffffffffffffffff1916149050919050565b61130e8161130961143a565b6115a2565b50565b60007f02dd7bc7dec4dceedda775e58dd541e08a116c6c53815c0bd028192f7b626800905090565b600080611344611311565b90506113508484611131565b61142e57600181600001600086815260200190815260200160002060000160008573ffffffffffffffffffffffffffffffffffffffff1673ffffffffffffffffffffffffffffffffffffffff16815260200190815260200160002060006101000a81548160ff0219169083151502179055506113ca61143a565b73ffffffffffffffffffffffffffffffffffffffff168373ffffffffffffffffffffffffffffffffffffffff16857f2f8788117e7eff1d82e926ec794901d17c78024a50270940304540a733656f0d60405160405180910390a46001915050611434565b60009150505b92915050565b600033905090565b60008061144d611311565b90506114598484611131565b1561153857600081600001600086815260200190815260200160002060000160008573ffffffffffffffffffffffffffffffffffffffff1673ffffffffffffffffffffffffffffffffffffffff16815260200190815260200160002060006101000a81548160ff0219169083151502179055506114d461143a565b73ffffffffffffffffffffffffffffffffffffffff168373ffffffffffffffffffffffffffffffffffffffff16857ff6391f5c32d9c69d2a47ea670b442974b53935d1edc7fd64eb21e047a839171b60405160405180910390a4600191505061153e565b60009150505b92915050565b60007ff0c57e16840df040f15088dc2f81fe391c3923bec73e23a9662efc9c229c6a00905090565b6115746115f3565b565b60006a636f6e736f6c652e6c6f679050600080835160208501845afa505050565b611653819050919050565b6115ac8282611131565b6115ef5780826040517fe2517d3f0000000000000000000000000000000000000000000000000000000081526004016115e692919061201a565b60405180910390fd5b5050565b6115fb611633565b611631576040517fd7e6bcf800000000000000000000000000000000000000000000000000000000815260040160405180910390fd5b565b600061163d611544565b60000160089054906101000a900460ff16905090565b61165b612043565b565b6000604051905090565b600080fd5b600080fd5b6000601f19601f8301169050919050565b7f4e487b7100000000000000000000000000000000000000000000000000000000600052604160045260246000fd5b6116ba82611671565b810181811067ffffffffffffffff821117156116d9576116d8611682565b5b80604052505050565b60006116ec61165d565b90506116f882826116b1565b919050565b6000819050919050565b611710816116fd565b811461171b57600080fd5b50565b60008151905061172d81611707565b92915050565b600073ffffffffffffffffffffffffffffffffffffffff82169050919050565b600061175e82611733565b9050919050565b61176e81611753565b811461177957600080fd5b50565b60008151905061178b81611765565b92915050565b600061179c82611733565b9050919050565b6117ac81611791565b81146117b757600080fd5b50565b6000815190506117c9816117a3565b92915050565b600060a082840312156117e5576117e461166c565b5b6117ef60a06116e2565b905060006117ff8482850161171e565b60008301525060206118138482850161177c565b60208301525060406118278482850161177c565b604083015250606061183b848285016117ba565b606083015250608061184f8482850161171e565b60808301525092915050565b600060a0828403121561187157611870611667565b5b600061187f848285016117cf565b91505092915050565b60007fffffffff0000000000000000000000000000000000000000000000000000000082169050919050565b6118bd81611888565b81146118c857600080fd5b50565b6000813590506118da816118b4565b92915050565b6000602082840312156118f6576118f5611667565b5b6000611904848285016118cb565b91505092915050565b60008115159050919050565b6119228161190d565b82525050565b600060208201905061193d6000830184611919565b92915050565b60008135905061195281611707565b92915050565b60006020828403121561196e5761196d611667565b5b600061197c84828501611943565b91505092915050565b600081359050611994816117a3565b92915050565b6000602082840312156119b0576119af611667565b5b60006119be84828501611985565b91505092915050565b6000819050919050565b6119da816119c7565b81146119e557600080fd5b50565b6000813590506119f7816119d1565b92915050565b600060208284031215611a1357611a12611667565b5b6000611a21848285016119e8565b91505092915050565b611a33816119c7565b82525050565b6000602082019050611a4e6000830184611a2a565b92915050565b611a5d816116fd565b82525050565b6000602082019050611a786000830184611a54565b92915050565b60008060408385031215611a9557611a94611667565b5b6000611aa3858286016119e8565b9250506020611ab485828601611985565b9150509250929050565b600081359050611acd81611765565b92915050565b600080600080600060a08688031215611aef57611aee611667565b5b6000611afd88828901611943565b9550506020611b0e88828901611abe565b9450506040611b1f88828901611abe565b9350506060611b3088828901611985565b9250506080611b4188828901611943565b9150509295509295909350565b600080600060608486031215611b6757611b66611667565b5b6000611b7586828701611943565b9350506020611b8686828701611abe565b9250506040611b9786828701611985565b9150509250925092565b600081519050919050565b600082825260208201905092915050565b60005b83811015611bdb578082015181840152602081019050611bc0565b60008484015250505050565b6000611bf282611ba1565b611bfc8185611bac565b9350611c0c818560208601611bbd565b611c1581611671565b840191505092915050565b60006040820190508181036000830152611c3a8185611be7565b9050611c496020830184611a54565b9392505050565b600081519050919050565b600082825260208201905092915050565b6000611c7782611c50565b611c818185611c5b565b9350611c91818560208601611bbd565b611c9a81611671565b840191505092915050565b60006020820190508181036000830152611cbf8184611c6c565b905092915050565b7f4e487b7100000000000000000000000000000000000000000000000000000000600052601160045260246000fd5b6000611d01826116fd565b9150611d0c836116fd565b9250828201905080821115611d2457611d23611cc7565b5b92915050565b6000611d35826116fd565b9150611d40836116fd565b9250828203905081811115611d5857611d57611cc7565b5b92915050565b6000819050919050565b6000611d83611d7e611d7984611733565b611d5e565b611733565b9050919050565b6000611d9582611d68565b9050919050565b6000611da782611d8a565b9050919050565b611db781611d9c565b82525050565b6000604082019050611dd26000830185611dae565b611ddf6020830184611a54565b9392505050565b611def8161190d565b8114611dfa57600080fd5b50565b600081519050611e0c81611de6565b92915050565b600060208284031215611e2857611e27611667565b5b6000611e3684828501611dfd565b91505092915050565b6000604082019050611e546000830185611a54565b611e616020830184611a54565b9392505050565b611e7181611791565b82525050565b6000606082019050611e8c6000830186611dae565b611e996020830185611e68565b611ea66040830184611a54565b949350505050565b6000606082019050611ec36000830186611dae565b611ed06020830185611dae565b611edd6040830184611a54565b949350505050565b6000604082019050611efa6000830185611e68565b611f076020830184611a54565b9392505050565b6000819050919050565b600067ffffffffffffffff82169050919050565b6000611f47611f42611f3d84611f0e565b611d5e565b611f18565b9050919050565b611f5781611f2c565b82525050565b6000602082019050611f726000830184611f4e565b92915050565b6000611f83826116fd565b9150611f8e836116fd565b9250828202611f9c816116fd565b91508282048414831517611fb357611fb2611cc7565b5b5092915050565b7f4e487b7100000000000000000000000000000000000000000000000000000000600052601260045260246000fd5b6000611ff4826116fd565b9150611fff836116fd565b92508261200f5761200e611fba565b5b828204905092915050565b600060408201905061202f6000830185611e68565b61203c6020830184611a2a565b9392505050565b7f4e487b7100000000000000000000000000000000000000000000000000000000600052605160045260246000fdfea2646970667358221220cc1b542eec78dd2dc8e29683f0b8e5fd5fa82ea921ed046f6938ea7e8e665f3964736f6c63430008140033",
  "linkReferences": {},
  "deployedLinkReferences": {}
}